{
  "contractName": "MyContract",
  "abi": [
    {
      "inputs": [
        {
          "internalType": "uint256",
          "name": "_value",
          "type": "uint256"
        }
      ],
      "stateMutability": "nonpayable",
      "type": "constructor"
    },
    {
      "inputs": [],
      "name": "value",
      "outputs": [
        {
          "internalType": "uint256",
          "name": "",
          "type": "uint256"
        }
      ],
      "stateMutability": "view",
      "type": "function",
      "constant": true
    }
  ],
  "bytecode": "0x608060405234801561000f575f80fd5b50604051610211380380610211833981810160405281019061003191906100b6565b5f8111610073576040517f08c379a000000000000000000000000000000000000000000000000000000000815260040161006a9061013b565b60405180910390fd5b805f8190555050610159565b5f80fd5b5f819050919050565b61009581610083565b811461009f575f80fd5b50565b5f815190506100b08161008c565b92915050565b5f602082840312156100cb576100ca61007f565b5b5f6100d8848285016100a2565b91505092915050565b5f82825260208201905092915050565b7f56616c7565206d7573742062652067726561746572207468616e207a65726f005f82015250565b5f610125601f836100e1565b9150610130826100f1565b602082019050919050565b5f6020820190508181035f83015261015281610119565b9050919050565b60ac806101655f395ff3fe6080604052348015600e575f80fd5b50600436106026575f3560e01c80633fa4f24514602a575b5f80fd5b60306044565b604051603b9190605f565b60405180910390f35b5f5481565b5f819050919050565b6059816049565b82525050565b5f60208201905060705f8301846052565b9291505056fea2646970667358221220b63a6488d01470bc2fc15bea55df72e8209358897a127a48294f8b8409e0173864736f6c63430008150033",
  "immutableReferences": {},
  "source": "// contracts/MyContract.sol\r\n// SPDX-License-Identifier: MIT\r\n\r\npragma solidity ^0.8.0;\r\n\r\ncontract MyContract {\r\n    uint256 public value;\r\n\r\n    constructor(uint256 _value) {\r\n        require(_value > 0, \"Value must be greater than zero\");\r\n        value = _value;\r\n    }\r\n}\r\n",
  "sourcePath": "D:\\projects\\web3\\contracts\\myContract.sol",
  "compiler": {
    "name": "solc",
    "version": "0.8.21+commit.d9974bed.Emscripten.clang"
  },
  "schemaVersion": "3.4.16",
  "updatedAt": "2024-08-12T19:02:15.940Z",
  "networkType": "ethereum",
  "devdoc": {
    "kind": "dev",
    "methods": {},
    "version": 1
  },
  "userdoc": {
    "kind": "user",
    "methods": {},
    "version": 1
  }
}